{
  "contractName": "WyreFilter",
  "abi": [
    {
      "inputs": [
        {
          "name": "_exchange",
          "type": "address"
        },
        {
          "name": "_wyre",
          "type": "address"
        }
      ],
      "payable": false,
      "stateMutability": "nonpayable",
      "type": "constructor"
    },
    {
      "constant": true,
      "inputs": [
        {
          "name": "hash",
          "type": "bytes32"
        },
        {
          "name": "signerAddress",
          "type": "address"
        },
        {
          "name": "signature",
          "type": "bytes"
        }
      ],
      "name": "isValidSignature",
      "outputs": [
        {
          "name": "isValid",
          "type": "bool"
        }
      ],
      "payable": false,
      "stateMutability": "view",
      "type": "function"
    },
    {
      "constant": false,
      "inputs": [
        {
          "components": [
            {
              "name": "makerAddress",
              "type": "address"
            },
            {
              "name": "takerAddress",
              "type": "address"
            },
            {
              "name": "feeRecipientAddress",
              "type": "address"
            },
            {
              "name": "senderAddress",
              "type": "address"
            },
            {
              "name": "makerAssetAmount",
              "type": "uint256"
            },
            {
              "name": "takerAssetAmount",
              "type": "uint256"
            },
            {
              "name": "makerFee",
              "type": "uint256"
            },
            {
              "name": "takerFee",
              "type": "uint256"
            },
            {
              "name": "expirationTimeSeconds",
              "type": "uint256"
            },
            {
              "name": "salt",
              "type": "uint256"
            },
            {
              "name": "makerAssetData",
              "type": "bytes"
            },
            {
              "name": "takerAssetData",
              "type": "bytes"
            }
          ],
          "name": "order",
          "type": "tuple"
        },
        {
          "name": "takerAssetFillAmount",
          "type": "uint256"
        },
        {
          "name": "salt",
          "type": "uint256"
        },
        {
          "name": "signature",
          "type": "bytes"
        }
      ],
      "name": "conditionalFillOrder",
      "outputs": [],
      "payable": false,
      "stateMutability": "nonpayable",
      "type": "function"
    }
  ],
  "bytecode": "0x60806040523480156200001157600080fd5b5060405160408062001140833981018060405262000033919081019062000260565b816000806101000a81548173ffffffffffffffffffffffffffffffffffffffff021916908373ffffffffffffffffffffffffffffffffffffffff16021790555080600160006101000a81548173ffffffffffffffffffffffffffffffffffffffff021916908373ffffffffffffffffffffffffffffffffffffffff160217905550307f0500000000000000000000000000000000000000000000000000000000000000604051602001808373ffffffffffffffffffffffffffffffffffffffff1673ffffffffffffffffffffffffffffffffffffffff166c01000000000000000000000000028152601401827effffffffffffffffffffffffffffffffffffffffffffffffffffffffffffff19167effffffffffffffffffffffffffffffffffffffffffffffffffffffffffffff191681526001019250505060405160208183030381529060405260029080519060200190620001929291906200019b565b505050620002c1565b828054600181600116156101000203166002900490600052602060002090601f016020900481019282601f10620001de57805160ff19168380011785556200020f565b828001600101855582156200020f579182015b828111156200020e578251825591602001919060010190620001f1565b5b5090506200021e919062000222565b5090565b6200024791905b808211156200024357600081600090555060010162000229565b5090565b90565b6000620002588251620002a1565b905092915050565b600080604083850312156200027457600080fd5b600062000284858286016200024a565b925050602062000297858286016200024a565b9150509250929050565b600073ffffffffffffffffffffffffffffffffffffffff82169050919050565b610e6f80620002d16000396000f30060806040526004361061004c576000357c0100000000000000000000000000000000000000000000000000000000900463ffffffff1680636840514914610051578063936347021461007a575b600080fd5b34801561005d57600080fd5b5061007860048036036100739190810190610812565b6100b7565b005b34801561008657600080fd5b506100a1600480360361009c91908101906107a6565b6104d5565b6040516100ae9190610bb8565b60405180910390f35b600060603391503273ffffffffffffffffffffffffffffffffffffffff168273ffffffffffffffffffffffffffffffffffffffff1614151561012e576040517f08c379a000000000000000000000000000000000000000000000000000000000815260040161012590610c13565b60405180910390fd5b60018060009054906101000a900473ffffffffffffffffffffffffffffffffffffffff1673ffffffffffffffffffffffffffffffffffffffff166370a0823188600001516040518263ffffffff167c01000000000000000000000000000000000000000000000000000000000281526004016101aa9190610b9d565b602060405180830381600087803b1580156101c457600080fd5b505af11580156101d8573d6000803e3d6000fd5b505050506040513d601f19601f820116820180604052506101fc91908101906108a5565b1015151561023f576040517f08c379a000000000000000000000000000000000000000000000000000000000815260040161023690610bf3565b60405180910390fd5b60018060009054906101000a900473ffffffffffffffffffffffffffffffffffffffff1673ffffffffffffffffffffffffffffffffffffffff166370a08231846040518263ffffffff167c01000000000000000000000000000000000000000000000000000000000281526004016102b79190610b9d565b602060405180830381600087803b1580156102d157600080fd5b505af11580156102e5573d6000803e3d6000fd5b505050506040513d601f19601f8201168201806040525061030991908101906108a5565b1015151561034c576040517f08c379a000000000000000000000000000000000000000000000000000000000815260040161034390610bd3565b60405180910390fd5b6000809054906101000a900473ffffffffffffffffffffffffffffffffffffffff1673ffffffffffffffffffffffffffffffffffffffff1663b4be83d590507c0100000000000000000000000000000000000000000000000000000000028686856040516024016103bf93929190610c33565b604051602081830303815290604052907bffffffffffffffffffffffffffffffffffffffffffffffffffffffff19166020820180517bffffffffffffffffffffffffffffffffffffffffffffffffffffffff838183161783525050505090506000809054906101000a900473ffffffffffffffffffffffffffffffffffffffff1673ffffffffffffffffffffffffffffffffffffffff1663bfc8bfce85848460026040518563ffffffff167c010000000000000000000000000000000000000000000000000000000002815260040161049b9493929190610c78565b600060405180830381600087803b1580156104b557600080fd5b505af11580156104c9573d6000803e3d6000fd5b50505050505050505050565b60003273ffffffffffffffffffffffffffffffffffffffff168473ffffffffffffffffffffffffffffffffffffffff16149050949350505050565b600061051c8235610dae565b905092915050565b60006105308235610dce565b905092915050565b60008083601f840112151561054c57600080fd5b8235905067ffffffffffffffff81111561056557600080fd5b60208301915083600182028301111561057d57600080fd5b9250929050565b600082601f830112151561059757600080fd5b81356105aa6105a582610cf8565b610ccb565b915080825260208301602083018583830111156105c657600080fd5b6105d1838284610de2565b50505092915050565b600082601f83011215156105ed57600080fd5b81356106006105fb82610d24565b610ccb565b9150808252602083016020830185838301111561061c57600080fd5b610627838284610de2565b50505092915050565b6000610180828403121561064357600080fd5b61064e610180610ccb565b9050600061065e84828501610510565b600083015250602061067284828501610510565b602083015250604061068684828501610510565b604083015250606061069a84828501610510565b60608301525060806106ae8482850161077e565b60808301525060a06106c28482850161077e565b60a08301525060c06106d68482850161077e565b60c08301525060e06106ea8482850161077e565b60e0830152506101006106ff8482850161077e565b610100830152506101206107158482850161077e565b6101208301525061014082013567ffffffffffffffff81111561073757600080fd5b61074384828501610584565b6101408301525061016082013567ffffffffffffffff81111561076557600080fd5b61077184828501610584565b6101608301525092915050565b600061078a8235610dd8565b905092915050565b600061079e8251610dd8565b905092915050565b600080600080606085870312156107bc57600080fd5b60006107ca87828801610524565b94505060206107db87828801610510565b935050604085013567ffffffffffffffff8111156107f857600080fd5b61080487828801610538565b925092505092959194509250565b6000806000806080858703121561082857600080fd5b600085013567ffffffffffffffff81111561084257600080fd5b61084e87828801610630565b945050602061085f8782880161077e565b93505060406108708782880161077e565b925050606085013567ffffffffffffffff81111561088d57600080fd5b610899878288016105da565b91505092959194509250565b6000602082840312156108b757600080fd5b60006108c584828501610792565b91505092915050565b6108d781610d78565b82525050565b6108e681610d98565b82525050565b60006108f782610d6d565b80845261090b816020860160208601610df1565b61091481610e24565b602085010191505092915050565b600061092d82610d62565b808452610941816020860160208601610df1565b61094a81610e24565b602085010191505092915050565b6000815460018116600081146109755760018114610995576109d6565b607f600283041680865260ff1983166020870152604086019350506109d6565b600282048086526020860195506109ab85610d50565b60005b828110156109cd578154818901526001820191506020810190506109ae565b80880195505050505b505092915050565b6000601582527f54616b6572206973206e6f7420766572696669656400000000000000000000006020830152604082019050919050565b6000601582527f4d616b6572206973206e6f7420766572696669656400000000000000000000006020830152604082019050919050565b6000600e82527f494e56414c49445f53454e4445520000000000000000000000000000000000006020830152604082019050919050565b600061018083016000830151610a9c60008601826108ce565b506020830151610aaf60208601826108ce565b506040830151610ac260408601826108ce565b506060830151610ad560608601826108ce565b506080830151610ae86080860182610b8e565b5060a0830151610afb60a0860182610b8e565b5060c0830151610b0e60c0860182610b8e565b5060e0830151610b2160e0860182610b8e565b50610100830151610b36610100860182610b8e565b50610120830151610b4b610120860182610b8e565b50610140830151848203610140860152610b658282610922565b915050610160830151848203610160860152610b818282610922565b9150508091505092915050565b610b9781610da4565b82525050565b6000602082019050610bb260008301846108ce565b92915050565b6000602082019050610bcd60008301846108dd565b92915050565b60006020820190508181036000830152610bec816109de565b9050919050565b60006020820190508181036000830152610c0c81610a15565b9050919050565b60006020820190508181036000830152610c2c81610a4c565b9050919050565b60006060820190508181036000830152610c4d8186610a83565b9050610c5c6020830185610b8e565b8181036040830152610c6e81846108ec565b9050949350505050565b6000608082019050610c8d6000830187610b8e565b610c9a60208301866108ce565b8181036040830152610cac81856108ec565b90508181036060830152610cc08184610958565b905095945050505050565b6000604051905081810181811067ffffffffffffffff82111715610cee57600080fd5b8060405250919050565b600067ffffffffffffffff821115610d0f57600080fd5b601f19601f8301169050602081019050919050565b600067ffffffffffffffff821115610d3b57600080fd5b601f19601f8301169050602081019050919050565b60008160005260206000209050919050565b600081519050919050565b600081519050919050565b600073ffffffffffffffffffffffffffffffffffffffff82169050919050565b60008115159050919050565b6000819050919050565b600073ffffffffffffffffffffffffffffffffffffffff82169050919050565b6000819050919050565b6000819050919050565b82818337600083830152505050565b60005b83811015610e0f578082015181840152602081019050610df4565b83811115610e1e576000848401525b50505050565b6000601f19601f83011690509190505600a265627a7a723058204cf23bc3c39f7de61cbac52d7a9dfa0f9079b17cdf76b058487afa694a841ba16c6578706572696d656e74616cf50037",
  "source": "pragma solidity ^0.4.23;\npragma experimental ABIEncoderV2;\n\n\nimport \"./libs/LibOrder.sol\";\nimport \"./libs/LibFillResults.sol\";\n\n\ncontract IWyre {\n    function balanceOf(address _owner) public view returns (uint256 _balance);\n}\n\n\ncontract IExchange {\n    function executeTransaction(\n        uint256 salt,\n        address signerAddress,\n        bytes data,\n        bytes signature\n    )\n        external;\n\n    function fillOrder(\n        LibOrder.Order memory order,\n        uint256 takerAssetFillAmount,\n        bytes memory signature\n    )\n        public\n        returns (LibFillResults.FillResults memory fillResults);\n}\n\n\ncontract WyreFilter {\n    IExchange internal EXCHANGE;\n    IWyre internal WYRE;\n    bytes internal TX_ORIGIN_SIGNATURE;\n    byte constant internal VALIDATOR_SIGNATURE_BYTE = \"\\x05\";\n\n    constructor (address _exchange, address _wyre)\n        public\n    {\n        EXCHANGE = IExchange(_exchange);\n        WYRE = IWyre(_wyre);\n        TX_ORIGIN_SIGNATURE = abi.encodePacked(address(this), VALIDATOR_SIGNATURE_BYTE);\n    }\n\n    function isValidSignature(\n        bytes32 hash,\n        address signerAddress,\n        bytes signature\n    )\n        external\n        view\n        returns (bool isValid)\n    {\n        // solhint-disable-next-line avoid-tx-origin\n        return signerAddress == tx.origin;\n    }\n\n    function conditionalFillOrder(\n        LibOrder.Order memory order,\n        uint256 takerAssetFillAmount,\n        uint256 salt,\n        bytes memory signature)\n        public\n    {\n        address takerAddress = msg.sender;\n\n        // This contract must be the entry point for the transaction.\n        require(\n            // solhint-disable-next-line avoid-tx-origin\n            takerAddress == tx.origin,\n            \"INVALID_SENDER\"\n        );\n\n        // Check Wyre verification\n        require(WYRE.balanceOf(order.makerAddress) >= 1, \"Maker is not verified\");\n        require(WYRE.balanceOf(takerAddress) >= 1, \"Taker is not verified\");\n\n        // Encode arguments into byte array.\n        bytes memory data = abi.encodeWithSelector(\n            EXCHANGE.fillOrder.selector,\n            order,\n            takerAssetFillAmount,\n            signature\n        );\n\n        // Call `fillOrder` via `executeTransaction`.\n        EXCHANGE.executeTransaction(\n            salt,\n            takerAddress,\n            data,\n            TX_ORIGIN_SIGNATURE\n        );        \n    }\n}\n",
  "sourcePath": "/Users/andreianisimov/projects/hackathon/contracts/contracts/WyreFilter.sol",
  "compiler": {
    "name": "solc",
    "version": "0.4.24+commit.e67f0147.Emscripten.clang"
  },
  "schemaVersion": "2.0.1",
  "updatedAt": "2018-10-07T04:34:24.430Z"
}