{
  "contractName": "WyreFilter",
  "abi": [
    {
      "constant": false,
      "inputs": [
        {
          "components": [
            {
              "name": "makerAddress",
              "type": "address"
            },
            {
              "name": "takerAddress",
              "type": "address"
            },
            {
              "name": "feeRecipientAddress",
              "type": "address"
            },
            {
              "name": "senderAddress",
              "type": "address"
            },
            {
              "name": "makerAssetAmount",
              "type": "uint256"
            },
            {
              "name": "takerAssetAmount",
              "type": "uint256"
            },
            {
              "name": "makerFee",
              "type": "uint256"
            },
            {
              "name": "takerFee",
              "type": "uint256"
            },
            {
              "name": "expirationTimeSeconds",
              "type": "uint256"
            },
            {
              "name": "salt",
              "type": "uint256"
            },
            {
              "name": "makerAssetData",
              "type": "bytes"
            },
            {
              "name": "takerAssetData",
              "type": "bytes"
            }
          ],
          "name": "order",
          "type": "tuple"
        },
        {
          "name": "takerAssetFillAmount",
          "type": "uint256"
        },
        {
          "name": "signature",
          "type": "bytes"
        }
      ],
      "name": "conditionalFillOrder",
      "outputs": [],
      "payable": false,
      "stateMutability": "nonpayable",
      "type": "function"
    }
  ],
  "bytecode": "0x608060405234801561001057600080fd5b50610ac9806100206000396000f300608060405260043610610041576000357c0100000000000000000000000000000000000000000000000000000000900463ffffffff168063a2c0cf4714610046575b600080fd5b34801561005257600080fd5b5061006d60048036036100689190810190610602565b61006f565b005b60008073b14fa2276d8bd26713a6d98871b2d63da9eefe6f915060018273ffffffffffffffffffffffffffffffffffffffff166370a0823187600001516040518263ffffffff167c01000000000000000000000000000000000000000000000000000000000281526004016100e491906108ad565b602060405180830381600087803b1580156100fe57600080fd5b505af1158015610112573d6000803e3d6000fd5b505050506040513d601f19601f820116820180604052506101369190810190610681565b10151515610179576040517f08c379a0000000000000000000000000000000000000000000000000000000008152600401610170906108e8565b60405180910390fd5b60018273ffffffffffffffffffffffffffffffffffffffff166370a08231336040518263ffffffff167c01000000000000000000000000000000000000000000000000000000000281526004016101d091906108ad565b602060405180830381600087803b1580156101ea57600080fd5b505af11580156101fe573d6000803e3d6000fd5b505050506040513d601f19601f820116820180604052506102229190810190610681565b10151515610265576040517f08c379a000000000000000000000000000000000000000000000000000000000815260040161025c906108c8565b60405180910390fd5b7335dd2932454449b14cee11a94d3674a936d5d7b290508073ffffffffffffffffffffffffffffffffffffffff1663b4be83d58686866040518463ffffffff167c01000000000000000000000000000000000000000000000000000000000281526004016102d593929190610908565b608060405180830381600087803b1580156102ef57600080fd5b505af1158015610303573d6000803e3d6000fd5b505050506040513d601f19601f8201168201806040525061032791908101906105d9565b505050505050565b600061033b8235610a12565b905092915050565b600082601f830112151561035657600080fd5b81356103696103648261097a565b61094d565b9150808252602083016020830185838301111561038557600080fd5b610390838284610a3c565b50505092915050565b600082601f83011215156103ac57600080fd5b81356103bf6103ba826109a6565b61094d565b915080825260208301602083018583830111156103db57600080fd5b6103e6838284610a3c565b50505092915050565b60006080828403121561040157600080fd5b61040b608061094d565b9050600061041b848285016105c5565b600083015250602061042f848285016105c5565b6020830152506040610443848285016105c5565b6040830152506060610457848285016105c5565b60608301525092915050565b6000610180828403121561047657600080fd5b61048161018061094d565b905060006104918482850161032f565b60008301525060206104a58482850161032f565b60208301525060406104b98482850161032f565b60408301525060606104cd8482850161032f565b60608301525060806104e1848285016105b1565b60808301525060a06104f5848285016105b1565b60a08301525060c0610509848285016105b1565b60c08301525060e061051d848285016105b1565b60e083015250610100610532848285016105b1565b61010083015250610120610548848285016105b1565b6101208301525061014082013567ffffffffffffffff81111561056a57600080fd5b61057684828501610343565b6101408301525061016082013567ffffffffffffffff81111561059857600080fd5b6105a484828501610343565b6101608301525092915050565b60006105bd8235610a32565b905092915050565b60006105d18251610a32565b905092915050565b6000608082840312156105eb57600080fd5b60006105f9848285016103ef565b91505092915050565b60008060006060848603121561061757600080fd5b600084013567ffffffffffffffff81111561063157600080fd5b61063d86828701610463565b935050602061064e868287016105b1565b925050604084013567ffffffffffffffff81111561066b57600080fd5b61067786828701610399565b9150509250925092565b60006020828403121561069357600080fd5b60006106a1848285016105c5565b91505092915050565b6106b3816109e8565b82525050565b60006106c4826109dd565b8084526106d8816020860160208601610a4b565b6106e181610a7e565b602085010191505092915050565b60006106fa826109d2565b80845261070e816020860160208601610a4b565b61071781610a7e565b602085010191505092915050565b6000601582527f54616b6572206973206e6f7420766572696669656400000000000000000000006020830152604082019050919050565b6000601582527f4d616b6572206973206e6f7420766572696669656400000000000000000000006020830152604082019050919050565b6000610180830160008301516107ac60008601826106aa565b5060208301516107bf60208601826106aa565b5060408301516107d260408601826106aa565b5060608301516107e560608601826106aa565b5060808301516107f8608086018261089e565b5060a083015161080b60a086018261089e565b5060c083015161081e60c086018261089e565b5060e083015161083160e086018261089e565b5061010083015161084661010086018261089e565b5061012083015161085b61012086018261089e565b5061014083015184820361014086015261087582826106ef565b91505061016083015184820361016086015261089182826106ef565b9150508091505092915050565b6108a781610a08565b82525050565b60006020820190506108c260008301846106aa565b92915050565b600060208201905081810360008301526108e181610725565b9050919050565b600060208201905081810360008301526109018161075c565b9050919050565b600060608201905081810360008301526109228186610793565b9050610931602083018561089e565b818103604083015261094381846106b9565b9050949350505050565b6000604051905081810181811067ffffffffffffffff8211171561097057600080fd5b8060405250919050565b600067ffffffffffffffff82111561099157600080fd5b601f19601f8301169050602081019050919050565b600067ffffffffffffffff8211156109bd57600080fd5b601f19601f8301169050602081019050919050565b600081519050919050565b600081519050919050565b600073ffffffffffffffffffffffffffffffffffffffff82169050919050565b6000819050919050565b600073ffffffffffffffffffffffffffffffffffffffff82169050919050565b6000819050919050565b82818337600083830152505050565b60005b83811015610a69578082015181840152602081019050610a4e565b83811115610a78576000848401525b50505050565b6000601f19601f83011690509190505600a265627a7a7230582082b534e0cd471b01365df7ae4a95926c8b3cf3f721770821dbb7f61752fc45286c6578706572696d656e74616cf50037",
  "source": "pragma solidity ^0.4.23;\npragma experimental ABIEncoderV2;\n\n\nimport \"./libs/LibOrder.sol\";\nimport \"./libs/LibFillResults.sol\";\n\n\ncontract Wyre {\n    function balanceOf(address _owner) public view returns (uint256 _balance);\n}\n\n\ncontract Exchange {\n    function fillOrder(\n        LibOrder.Order memory order,\n        uint256 takerAssetFillAmount,\n        bytes memory signature\n    )\n        public\n        returns (LibFillResults.FillResults memory fillResults);\n}\n\n\ncontract WyreFilter {\n    address constant WYRE_ADDRESS = 0xB14fA2276D8bD26713A6D98871b2d63Da9eefE6f;\n    address constant EXCHANGE_ADDRESS = 0x35dD2932454449b14Cee11A94d3674a936d5d7b2;\n\n    function conditionalFillOrder(\n        LibOrder.Order memory order,\n        uint256 takerAssetFillAmount,\n        bytes memory signature)\n        public\n    {\n        // Check Wyre verification\n        Wyre wyre = Wyre(WYRE_ADDRESS);\n        require(wyre.balanceOf(order.makerAddress) >= 1, \"Maker is not verified\");\n        require(wyre.balanceOf(msg.sender) >= 1, \"Taker is not verified\");\n\n        // Fill order\n        Exchange exchange = Exchange(EXCHANGE_ADDRESS);\n        exchange.fillOrder(order, takerAssetFillAmount, signature);\n    }\n}\n",
  "sourcePath": "/Users/andreianisimov/projects/hackathon/contracts/contracts/WyreFilter.sol",
  "compiler": {
    "name": "solc",
    "version": "0.4.24+commit.e67f0147.Emscripten.clang"
  },
  "schemaVersion": "2.0.1",
  "updatedAt": "2018-10-06T04:30:51.031Z"
}